:100000000C94B2000C94DA000C94DA000C94820583
:100010000C94A6050C94CA050C94DA000C94DA0032
:100020000C94DA000C94DA000C94DA000C94DA00E8
:100030000C94DA000C94DA000C94DA000C94DA00D8
:100040000C9405080C94DA000C94D1090C94140A51
:100050000C94DA000C94DA000C94DA000C94DA00B8
:100060000C94DA000C94DA0000C2010001001100C7
:1000700011000C0000E100000A002500250021000D
:10008000009600001900390039003600127A00008D
:100090001F004600460044008070000022004D0012
:1000A0004D004A00004B00003600750075007200DC
:1000B000403800004A009C009C0099008025000008
:1000C0007200EC00EC00E900C0120000E900DA0167
:1000D000DA01D70160090000D701B603B603B30304
:1000E000B0040000B3036E076E076B0758020000F0
:1000F0006E07DC0EDC0ED80E2C010000DC0EC11DDC
:10010000C11DBE1D0000000700020100000304061F
:1001100000000000000000000102040810204080E0
:100120000102040810200102040810200404040441
:100130000404040402020202020203030303030391
:100140000000000023002600290000000000250018
:1001500028002B0000000000240027002A007E0257
:10016000D00ABD0211241FBECFEFD8E0DEBFCDBF45
:1001700011E0A0E0B1E0E6E5F7E102C005900D92E4
:10018000A432B107D9F722E0A4E2B1E001C01D9288
:10019000A635B207E1F711E0C2E6D1E004C022972C
:1001A000FE010E949A0BCE35D107C9F70E94320991
:1001B0000C949E0B0C9400003F924F925F926F92B2
:1001C0007F928F929F92AF92BF92CF92DF92EF92E7
:1001D000FF920F931F93CF93DF9300D01F92CDB761
:1001E000DEB73C01562E342E422E61E08E2D3B832D
:1001F0005A8379830E946D0761E08C2D0E946D0700
:1002000061E0852D0E946D0761E0832D0E946D07DE
:1002100061E0842D0E946D0761E0802F0E946D07D0
:10022000F30150827981718332825A8153834482EF
:100230003B81358306831783E086F186C286D386A9
:10024000B586A486978686860F900F900F90DF91D3
:10025000CF911F910F91FF90EF90DF90CF90BF90C3
:10026000AF909F908F907F906F905F904F903F9056
:1002700008958F929F92AF92BF92CF92EF920F9379
:100280001F93CF93DF9300D0CDB7DEB7162F8E2DFF
:10029000B5012A8349830E94D308B4018C2D0E94A2
:1002A000D30860E0812F0E94A60761E04981842F76
:1002B0000E94A60761E02A81822F0E94A60760E0C3
:1002C000802F0F900F90DF91CF911F910F91EF90A2
:1002D000CF90BF90AF909F908F900C94A6078F9275
:1002E0009F92AF92BF92CF92EF920F931F93CF93B3
:1002F000DF9300D0CDB7DEB7162F8E2DB5012A8340
:1003000049830E94D308B4018C2D0E94D30861E078
:10031000812F0E94A60760E04981842F0E94A607D2
:1003200060E02A81822F0E94A60761E0802F0F9053
:100330000F90DF91CF911F910F91EF90CF90BF90D1
:10034000AF909F908F900C94A6078F929F92AF9240
:10035000BF92CF92EF920F931F93CF93DF9300D072
:10036000CDB7DEB7162F8E2DB5012A8349830E94A3
:10037000D308B4018C2D0E94D30861E0812F0E9424
:10038000A60760E04981842F0E94A60761E02A81C8
:10039000822F0E94A60760E0802F0F900F90DF91C0
:1003A000CF911F910F91EF90CF90BF90AF909F9002
:1003B0008F900C94A6078F929F92AF92BF92CF928C
:1003C000EF920F931F93CF93DF9300D0CDB7DEB79B
:1003D000162F8E2DB5012A8349830E94D308B401BC
:1003E0008C2D0E94D30860E0812F0E94A60761E057
:1003F0004981842F0E94A60760E02A81822F0E94F3
:10040000A60761E0802F0F900F90DF91CF911F9191
:100410000F91EF90CF90BF90AF909F908F900C94E2
:10042000A6070F931F93CF93DF9300D0CDB7DEB70E
:10043000162F802F61E029834A830E94A60761E07E
:100440002981822F0E94A60761E0812F0E94A607C2
:1004500061E04A81842F0F900F90DF91CF911F911F
:100460000F910C94A607AF92BF92DF92EF92FF928A
:100470000F931F93CF93DF931F92CDB7DEB75C012D
:10048000062FD72E142FE52EF22E40E855E260E01D
:1004900070E08CEA91E039830E944F0A60E0802F7F
:1004A0000E946D0760E0812F0E946D0760E08F2D34
:1004B0000E946D07F5010083D1821483E582F282E8
:1004C000398133830F90DF91CF911F910F91FF906E
:1004D000EF90DF90BF90AF900895862F0C94DC07CB
:1004E000862F0C94DC07862F0C94DC0740E855E23D
:1004F00060E070E084E291E00C946C068F929F9231
:10050000AF92BF92CF92DF92EF92FF920F931F9321
:100510008090000190900101A0900201B090030131
:1005200089E0C82ED12C96E0E92EF12C08E010E0ED
:1005300027E030E045E050E064E070E086E491E0E0
:100540000E94DC002CE030E04BE050E06AE070E01C
:1005500080E491E00E94330220E042E063E084E224
:1005600091E01F910F91FF90EF90DF90CF90BF909F
:10057000AF909F908F900C943C0684E291E00C9495
:100580003D078F929F92AF92BF92CF92DF92EF92F0
:10059000FF920F931F9380915601909157010097FE
:1005A00009F0B3C084E291E00E94130480935E01DD
:1005B000682F84E291E00E94100580915E018F3FD8
:1005C00009F487C0813509F473C0F4F48134E1F192
:1005D000843409F079C08090000190900101A12C31
:1005E000B12CA9E0CA2ED12CB6E0EB2EF12C08E0FC
:1005F00010E027E030E045E050E064E070E086E4A1
:1006000091E00E94A50160C08335B9F1873509F0FA
:100610005BC08090000190900101A0900201B09019
:10062000030189E0C82ED12C96E0E92EF12C08E0D8
:1006300010E027E030E045E050E064E070E086E460
:1006400091E00E94390140C0A0900201B0900301E6
:10065000812C912C19E0C12ED12C06E0E02EF12C3A
:1006600008E010E027E030E045E050E064E070E0B2
:1006700086E491E00E94DB0127C080900001909009
:100680000101A0900201B0900301E9E0CE2ED12C2F
:10069000F6E0EF2EF12C08E010E027E030E045E036
:1006A00050E064E070E086E491E00E946F010CC0CD
:1006B00008E010E027E030E045E050E064E070E062
:1006C00086E491E00E94110268EE73E080E090E021
:1006D00010C008E010E027E030E045E050E064E0C2
:1006E00070E086E491E00E94110264EF71E080E026
:1006F00090E01F910F91FF90EF90DF90CF90BF900F
:10070000AF909F908F900C947208019709F080C071
:100710006AE070E080E491E00E946D0290935D01D8
:1007200080935C016BE070E080E491E00E947002D5
:1007300090935B0180935A016CE070E080E491E05B
:100740000E947302909359018093580120915A019D
:1007500030915B01232B09F04FC020915C01309157
:100760005D018090000190900101A0900201B09085
:10077000030121153105A9F4019759F569E0C62E49
:10078000D12C76E0E72EF12C08E010E027E030E0F5
:1007900045E050E064E070E086E491E00E94DB0117
:1007A00037C021303105A9F4892B99F449E0C42ED2
:1007B000D12C56E0E52EF12C08E010E027E030E0E7
:1007C00045E050E064E070E086E491E00E94A5011D
:1007D0001FC029E0C22ED12C36E0E32EF12C08E018
:1007E00010E027E030E045E050E064E070E086E4AF
:1007F00091E00E9439010CC008E010E027E030E0F1
:1008000045E050E064E070E086E491E00E9411026F
:100810001F910F91FF90EF90DF90CF90BF90AF901E
:100820009F908F9008952091A1013091A2012817E7
:100830003907B9F490915F0180916001981789F0B0
:10084000E0915F01F0E0EF59FE4F808120915F0160
:1008500030E02F5F3F4F2F73332720935F0190E0ED
:1008600008958FEF9FEF08952091A1013091A2018B
:100870002817390781F490915F01809160019817E2
:1008800051F0E0915F01F0E0EF59FE4F8081992730
:1008900087FD909508958FEF9FEF08952091A10116
:1008A0003091A2012817390771F4809160012091DD
:1008B0005F0190E0805C9F4F821B910960E470E0D3
:1008C0000E944E0B089580E090E008952091A101D0
:1008D0003091A2012817390739F48FB7F894109294
:1008E000600110925F018FBF0895DC015196ED9178
:1008F000FC915297208150968C9180958223808321
:10090000089520E001972FEF8F3F9207D9F70895C0
:100910002091A1013091A2012817390789F0FC012B
:10092000238D2E7F238F2FB7F894109260011092A1
:100930005F019093A2018093A1012FBF81E00895F0
:1009400080E00895EF92FF920F931F93CF93DF9370
:10095000EC018B8DEE85FF859D8581FF04C0808134
:10096000892329F447C08081892309F043C08B89FA
:100970009C890E94810408E010E0EE24E394F12CAD
:100980008D899E890E948104EE85FF8580819D85E9
:10099000892311F0FE2803C08E2D8095F822EE0CDD
:1009A000015011090115110559F78F89988D0E9481
:1009B00081048B8D81FDF0948091600120915F0115
:1009C00090E001968F73992730E08217930779F0B2
:1009D000E0916001F0E0EF59FE4FF08280916001FC
:1009E00090E001968F7399278093600103C08B8DEF
:1009F00081608B8FDF91CF911F910F91FF90EF90CE
:100A00000895611102C00C947504DC015196ED91BA
:100A1000FC915297208150968C91282B2083089529
:100A2000DF92EF92FF920F931F93CF93DF93EC012E
:100A3000E62E898D9A8D892B39F481E090E09B8395
:100A40008A8380E090E04DC0DFB6F8946B8D6695A8
:100A50006170CE010E940105898D9A8D05960E94D4
:100A600081048B8D08E010E0FF24F39481FF19C00E
:100A70008F2D8E2121F0CE010E94750404C061E00B
:100A8000CE010E940105898D9A8D0E948104FF0C80
:100A9000015011090115110559F7CE010E94750485
:100AA00019C08F2D8E2129F061E0CE010E94010531
:100AB00003C0CE010E947504898D9A8D0E94810425
:100AC000FF0C015011090115110559F761E0CE0124
:100AD0000E940105DFBE898D9A8D0E94810481E00C
:100AE00090E0DF91CF911F910F91FF90EF90DF90F9
:100AF00008958091A1019091A201009711F00C94AA
:100B0000A20408951F920F920FB60F9211242F93F3
:100B10003F934F935F936F937F938F939F93AF9385
:100B2000BF93EF93FF930E947905FF91EF91BF91DF
:100B3000AF919F918F917F916F915F914F913F9175
:100B40002F910F900FBE0F901F9018951F920F922C
:100B50000FB60F9211242F933F934F935F936F9390
:100B60007F938F939F93AF93BF93EF93FF930E94D5
:100B70007905FF91EF91BF91AF919F918F917F91F7
:100B80006F915F914F913F912F910F900FBE0F90FA
:100B90001F9018951F920F920FB60F9211242F934A
:100BA0003F934F935F936F937F938F939F93AF93F5
:100BB000BF93EF93FF930E947905FF91EF91BF914F
:100BC000AF919F918F917F916F915F914F913F91E5
:100BD0002F910F900FBE0F901F9018951F93CF93DA
:100BE000DF93EC01162F61E0812F0E946D0761E019
:100BF000812F0E94A607812F90E0FC01E85EFE4F46
:100C0000E491E88BFC01E45DFE4FE491F0E0EE0F2F
:100C1000FF1FE65BFE4F859194919A8B898BDF9144
:100C2000CF911F9108951F93CF93DF93EC01162F5F
:100C300060E0812F0E946D078B8D81FD04C061E013
:100C4000812F0E94A6071C87812F90E0FC01E85E9F
:100C5000FE4FE491ED87FC01E45DFE4FE491F0E08E
:100C6000EE0FFF1FE05CFE4F859194919F878E876A
:100C7000DF91CF911F910895FF920F931F93CF9310
:100C8000DF93EC01F62E522F1B821A8208EE13E03E
:100C900020E030E00C831D832E833F8388E091E0C9
:100CA000998388831C8A1B8A1E8A1D8A188E1F8A34
:100CB0001A8E198E8B8D8E7F50FB81F98B8F642F4E
:100CC000CE010E94EE056F2DCE01DF91CF911F91D5
:100CD0000F91FF900C9413060F931F93CF93DF9304
:100CE000EC011A8E198E188E1F8A1E8A1D8AA8E69C
:100CF000B0E080E090E0FD010591159125913491DF
:100D0000041715072607370709F031C02CE0289F84
:100D1000F001299FF00D1124E459FF4F25913491E2
:100D20003C8B2B8B2CE0289FF001299FF00D112488
:100D3000E259FF4F259134913E8B2D8B2CE0289F5B
:100D4000F001299FF00D1124E059FF4F25913491B6
:100D5000388F2F8B2CE0289FF001299FF00D112454
:100D6000EE58FF4F859194919A8F898F08C0019614
:100D70001C968D30910509F0BECF1C8A1B8A8F8985
:100D8000988D892B09F443C08C858631E0F520913C
:100D90006800883050F091E08E3008F490E081E0F7
:100DA00001C0880F9A95EAF701C084E0822B8093F6
:100DB00068002C85283038F02E3040F0263148F07D
:100DC000E0E0F0E008C0EDE6F0E005C0EBE6F0E0C2
:100DD00002C0ECE6F0E03081283030F481E001C060
:100DE000880F2A95EAF70DC0822F90E02E3010F47C
:100DF000089701C00E9791E001C0990F8A95EAF714
:100E0000892F832B8083898D9A8D0E948104CE0146
:100E1000DF91CF911F910F910C948804FC014485C0
:100E2000463150F5483028F04E3030F4EBE6F0E033
:100E300005C0EDE6F0E002C0ECE6F0E0508148309D
:100E400040F481E090E0042E01C0880F0A94EAF794
:100E500010C0242F30E04E3018F42850310902C061
:100E60002E50310981E090E0022E01C0880F0A94D3
:100E7000EAF7809585238083089528E031E0FC011E
:100E8000318320830C940E07833081F028F4813065
:100E900099F08230A1F008958630A9F08730B9F03A
:100EA0008430D1F4809180008F7D03C080918000D8
:100EB0008F7780938000089584B58F7702C084B5C2
:100EC0008F7D84BD08958091B0008F7703C080919D
:100ED000B0008F7D8093B0000895CF93DF9390E0B2
:100EE000FC01E85EFE4F2491FC01E45DFE4F84911D
:100EF000882349F190E0880F991FFC01EC5AFE4FBE
:100F0000A591B491865B9E4FFC01C591D4919FB78A
:100F1000611108C0F8948C91209582238C9388816C
:100F200082230AC0623051F4F8948C91322F3095AC
:100F300083238C938881822B888304C0F8948C91BE
:100F4000822B8C939FBFDF91CF9108950F931F93B6
:100F5000CF93DF931F92CDB7DEB7282F30E0F90192
:100F6000EC5FFE4F8491F901E85EFE4F1491F901A8
:100F7000E45DFE4F04910023C9F0882321F06983CA
:100F80000E9444076981E02FF0E0EE0FFF1FE65B4F
:100F9000FE4FA591B4919FB7F8948C91611103C055
:100FA0001095812301C0812B8C939FBF0F90DF91FF
:100FB000CF911F910F910895CF93DF93282F30E0A9
:100FC000F901EC5FFE4F8491F901E85EFE4FD49188
:100FD000F901E45DFE4FC491CC2391F081110E9490
:100FE0004407EC2FF0E0EE0FFF1FE05CFE4FA591F1
:100FF000B4912C912D2381E090E021F480E002C097
:1010000080E090E0DF91CF9108951F920F920FB68C
:101010000F9211242F933F938F939F93AF93BF937E
:101020008091A4019091A501A091A601B091A70182
:101030003091A30123E0230F2D3720F40196A11D49
:10104000B11D05C026E8230F0296A11DB11D2093F6
:10105000A3018093A4019093A501A093A601B0934E
:10106000A7018091A8019091A901A091AA01B09136
:10107000AB010196A11DB11D8093A8019093A90118
:10108000A093AA01B093AB01BF91AF919F918F91B3
:101090003F912F910F900FBE0F901F9018953FB763
:1010A000F8948091A8019091A901A091AA01B09112
:1010B000AB0126B5A89B05C02F3F19F00196A11DD5
:1010C000B11D3FBF6627782F892F9A2F620F711DA0
:1010D000811D911D42E0660F771F881F991F4A9559
:1010E000D1F70895CF92DF92EF92FF92CF93DF93E3
:1010F0006B017C010E944F08EB01C114D104E10493
:10110000F10479F00E944F086C1B7D0B683E734020
:10111000A0F381E0C81AD108E108F108C851DC4FFA
:10112000ECCFDF91CF91FF90EF90DF90CF900895BB
:10113000789484B5826084BD84B5816084BD85B5B2
:10114000826085BD85B5816085BDEEE6F0E0808179
:1011500081608083E1E8F0E010828081826080839A
:10116000808181608083E0E8F0E08081816080831D
:10117000E1EBF0E0808184608083E0EBF0E080814F
:1011800081608083EAE7F0E08081846080838081F1
:101190008260808380818160808380818068808399
:1011A0001092C10008951F93CF93DF93182FEB0186
:1011B00061E00E946D07209711F460E004C0CF3F0A
:1011C000D10539F461E0812FDF91CF911F910C940B
:1011D000A607E12FF0E0EC5FFE4FE491E330F9F079
:1011E00048F4E130B9F0E230A1F584B5806284BD05
:1011F000C8BD34C0E630E9F0E73019F1E43049F514
:1012000080918000806280938000D0938B00C09397
:101210008A0024C084B5806884BDC7BD1FC080918A
:101220008000806880938000D0938900C0938800FC
:1012300015C08091B00080688093B000C093B30067
:101240000DC08091B00080628093B000C093B40064
:1012500005C0C038D1050CF0B5CFAFCFDF91CF912D
:101260001F9108950E9498080E947602CBE0DAE070
:101270000E94C1022097E1F30E940B0AF9CFFC0102
:1012800024853585F901E05CFF4F8081918132969C
:1012900020813181821B930B8F7399270895FC0164
:1012A00084859585FC01E05CFF4F40815181329639
:1012B000208131814217530741F00190F081E02DE8
:1012C000E80FF91F808190E008958FEF9FEF089558
:1012D000FC0184859585FC01E05CFF4F40815181D4
:1012E0003296208131814217530779F0A081B18174
:1012F000A80FB91F8C91208131812F5F3F4F2F7331
:1013000033273183208390E008958FEF9FEF089576
:10131000FC0181A1882329F0A489B5898C9186FFDD
:10132000FBCF11A20895CF93DF93FC01268537856B
:10133000D901A05CBF4F8D919C91119701968F733D
:101340009927E901CE5BDF4F4881598184179507C2
:10135000D9F30D90BC91A02DA20FB31F6C93A6855D
:10136000B785A05CBF4F11969C938E93A689B789D1
:101370002C9181E090E0078C02C0880F991F0A949D
:10138000E2F7282B2C9381E081A30488F589E02DD6
:1013900080818064808381E090E0DF91CF91089527
:1013A00008951F920F920FB60F9211242F933F931F
:1013B0004F938F939F93EF93FF938091C00082FD93
:1013C0001CC04091C6008091520290915302019638
:1013D0008F739927209154023091550282179307F9
:1013E00071F0E0915202F0915302EE5EFD4F4083A6
:1013F000909353028093520202C08091C600FF91E5
:10140000EF919F918F914F913F912F910F900FBE30
:101410000F901F9018958CEA91E00E943F09892B4C
:1014200011F00C94D00908951F920F920FB60F92ED
:1014300011242F933F938F939F93EF93FF932091CA
:101440000E0230910F028091100290911102281724
:10145000390731F48091C1008F7D8093C10014C0A1
:10146000E0911002F0911102E253FE4F2081809131
:1014700010029091110201968F7399279093110297
:10148000809310022093C600FF91EF919F918F915E
:101490003F912F910F900FBE0F901F901895CF92F4
:1014A000DF92EF92FF92CF93DF93EC016A017B0111
:1014B000411581EE580761057105F9F0EC89FD8948
:1014C00081E090E008A002C0880F991F0A94E2F71B
:1014D000808360E079E08DE390E0A70196010E94AF
:1014E000620B2150310941095109569547953795AD
:1014F0002795211580E1380798F0EC89FD89108245
:1015000060E874E88EE190E0A70196010E94620B0A
:10151000215031094109510956954795379527952D
:10152000E889F9893083EA89FB89208319A2EE8949
:10153000FF89408181E090E09C010C8C02C0220F69
:10154000331F0A94E2F7422B4083EE89FF894081E2
:101550009C010D8C02C0220F331F0A94E2F7422B2C
:101560004083EE89FF8940819C010E8C02C0220FCE
:10157000331F0A94E2F7422B4083EE89FF892081D2
:101580000F8C02C0880F991F0A94E2F7809582237E
:101590008083DF91CF91FF90EF90DF90CF900895FF
:1015A0001092AF011092AE0188EE93E0A0E0B0E09F
:1015B0008093B0019093B101A093B201B093B301B5
:1015C00088E191E09093AD018093AC0182E192E0DB
:1015D0009093B9018093B8018EEC91E09093BB0198
:1015E0008093BA0185EC90E09093BD018093BC019B
:1015F00084EC90E09093BF018093BE0180EC90E07A
:101600009093C1018093C00181EC90E09093C3015D
:101610008093C20182EC90E09093C5018093C40155
:1016200086EC90E09093C7018093C60184E080939C
:10163000C80183E08093C90187E08093CA0185E0F7
:101640008093CB0181E08093CC010895CF92DF920B
:10165000EF92FF920F931F93CF93DF936C017A0168
:10166000EB01E60EF71E00E010E0CE15DF0561F09D
:101670006991D601ED91FC910190F081E02DC601B8
:101680000995080F191FF1CFC801DF91CF911F9164
:101690000F91FF90EF90DF90CF90089597FB072E6A
:1016A00016F4009407D077FD09D00E94840B07FC44
:1016B00005D03EF4909581959F4F08957095619562
:1016C0007F4F0895A1E21A2EAA1BBB1BFD010DC07E
:1016D000AA1FBB1FEE1FFF1FA217B307E407F507E2
:1016E00020F0A21BB30BE40BF50B661F771F881FBE
:1016F000991F1A9469F760957095809590959B0154
:10170000AC01BD01CF010895AA1BBB1B51E107C06D
:10171000AA1FBB1FA617B70710F0A61BB70B881F81
:10172000991F5A95A9F780959095BC01CD01089510
:10173000EE0FFF1F0590F491E02D099411E0C2E631
:10174000D1E004C0FE010E949A0B2296C436D10754
:06175000C9F7F894FFCF79
:1017560064006400000000001005260B4E0413040C
:1017660034046604000000009309260B3F0968094B
:041776004F09880986
:00000001FF
